:020000040800F2
:1000000000040020CF010008150900083D04000885
:1000100011090008210300082B0D00080000000052
:10002000000000000000000000000000810A00083D
:10003000250300080000000089090008150B0008CE
:10004000EF010008EF010008EF010008EF010008D0
:10005000EF010008EF010008EF010008EF010008C0
:10006000EF010008EF010008EF010008EF010008B0
:10007000EF010008EF010008EF010008EF010008A0
:10008000EF010008EF010008EF010008EF01000890
:10009000EF010008EF010008EF010008EF01000880
:1000A000EF010008EF010008EF010008EF01000870
:1000B000EF010008EF010008EF010008EF01000860
:1000C000EF010008EF010008EF010008EF01000850
:1000D000EF010008190B0008EF010008EF0100080C
:1000E000EF010008EF010008EF010008EF01000830
:1000F000EF010008EF010008EF010008EF01000820
:10010000EF010008EF010008EF010008EF0100080F
:10011000EF010008EF010008EF010008EF010008FF
:10012000EF010008EF010008EF010008EF010008EF
:1001300000F002F800F03AF80AA090E8000C8244BF
:100140008344AAF10107DA4501D100F02FF8AFF29C
:10015000090EBAE80F0013F0010F18BFFB1A43F0A5
:1001600001031847440D0000640D0000103A24BF3D
:1001700078C878C1FAD8520724BF30C830C144BF0C
:1001800004680C607047000000230024002500264E
:10019000103A28BF78C1FBD8520728BF30C148BFEA
:1001A0000B6070471FB51FBD10B510BD00F072F891
:1001B0001146FFF7F7FF00F0FFFD00F0A4F803B4CD
:1001C000FFF7F2FF03BC00F0B2FD000070470B48E0
:1001D00080470B4981F308880A480047FEE7FEE79D
:1001E000FEE7FEE7FEE7FEE7FEE7FEE7FEE7FEE7E7
:1001F00005480649044A064B70470000CD01000837
:1002000078030020310100087801002078030020E5
:1002100078010020704700000FB4044910B503AA0C
:10022000029800F009F810BC5DF814FB00000020F3
:100230007047704770477047074B70B50D467B4459
:1002400000F011F80446284600F020F810B14FF0F5
:10025000FF3070BD204670BD5B0B000001694A1C79
:1002600002610878704700B58FB0CDE901310021F7
:10027000059105497944CDE903101146684600F01F
:100280002EF80FB000BD0000E5FFFFFF007B00F07F
:1002900080007047754600F03FF8AE46050069469D
:1002A000534620F00700854618B020B5FFF7A0FFA1
:1002B000BDE820404FF000064FF000074FF0000867
:1002C0004FF0000B21F00701AC46ACE8C009ACE8E8
:1002D000C009ACE8C009ACE8C0098D4670472DE9FB
:1002E000F04106460024D6E90170F56880463046A4
:1002F00003E04146B847641C3046A8470028F8D1BF
:100300002046BDE8F08110B50446AFF300802046DA
:10031000BDE81040FFF753BF0048704714010020AC
:1003200000BFFEE770472DE9F04102460025002698
:10033000002000230024002791F803C00CF00F05D3
:1003400091F803C00CF0100CBCF1000F03D091F831
:1003500002C04CEA050591F800C0BCF1000F31D095
:10036000146800202BE04FF0010C0CFA00F3B1F8F8
:1003700000C00CEA03069E4220D183004FF00F0C10
:100380000CFA03F7BC4305FA03FC4CEA040491F8A9
:1003900003C0BCF1280F06D14FF0010C0CFA00FC91
:1003A000C2F814C00AE091F803C0BCF1480F05D1AF
:1003B0004FF0010C0CFA00FCC2F810C0401C0828D9
:1003C000D1D31460B1F800C0BCF1FF0F34DD546824
:1003D00000202EE000F1080C4FF0010808FA0CF3A1
:1003E000B1F800C00CEA03069E4221D183004FF011
:1003F0000F0C0CFA03F7BC4305FA03FC4CEA0404A7
:1004000091F803C0BCF1280F05D100F1080C08FADF
:100410000CF8C2F8148091F803C0BCF1480F07D162
:1004200000F1080C4FF0010808FA0CF8C2F810802F
:10043000401C0828CED35460BDE8F08100BFFEE721
:1004400001464906084A926942F00102064B9A6148
:10045000064A526822F0E062044B5A601A4652681B
:100460000A435A607047000000100240000001403B
:1004700001251CE0012410E0AC4206D1FF231A46FE
:100480001946204600F0DEF905E000231A46194619
:10049000204600F0D7F9601CC4B2072CECDB062024
:1004A00000F066F9642000F05BFC681CC5B2072D03
:1004B000E0DB06251CE0062410E0AC4206D1FF2359
:1004C0001A461946204600F0BDF905E000231A46F9
:1004D0001946204600F0B6F9601EC4B2012CECDAD1
:1004E000062000F045F9642000F03AFC681EC5B211
:1004F000012DE0DA8AE0012582E0012470E0012D7F
:1005000010D1062C01D0012C06D1FF23F822114670
:10051000204600F097F905E000231A4619462046C8
:1005200000F090F9022D14D1052C05D0022C03D037
:10053000062C01D0012C06D1FF23F82211462046BB
:1005400000F080F905E000231A461946204600F025
:1005500079F9032D18D1032C09D0042C07D0052CD0
:1005600005D0022C03D0062C01D0012C06D1FF238C
:10057000F8221146204600F065F905E000231A46EE
:100580001946204600F05EF9042D14D1052C05D043
:10059000022C03D0062C01D0012C06D1FF23F82217
:1005A0001146204600F04EF905E000231A46194690
:1005B000204600F047F9052D10D1062C01D0012C62
:1005C00006D1FF23F8221146204600F03BF905E052
:1005D00000231A461946204600F034F9601CC4B2C4
:1005E000072C8CDB062000F0C3F8032D03D1C820B4
:1005F00000F0B6FB02E0642000F0B2FB681CC5B25C
:10060000062DFFF67AAF322000F0AAFB73E7000058
:1006100001202949086000BF00BF00BF00BF00BF24
:1006200000BF00BF00BF00BF00BF00BF00BF00BFD2
:1006300000BF00BF00BF00BF00BF00BF00BF002061
:100640001E49C1F8B40100BF00BF00BF00BF00BF1A
:1006500000BF00BF00BF00BF00BF00BF00BF00BFA2
:1006600000BF00BF00BF00BF00BF00BF00BF00BF92
:1006700000BF00BF00BF00BF00BF00BF00BF00BF82
:1006800000BF00BF00BF00BF00BF00BF00BF00BF72
:1006900000BF00BF00BF00BF00BF00BF00BF00BF62
:1006A00000BF00BF00BF00BF00BF00BF00BF00BF52
:1006B00000BF00BF70470000B40122420000224288
:1006C00001202949086000BF00BF00BF00BF00BF74
:1006D00000BF00BF00BF00BF00BF00BF00BF00BF22
:1006E00000BF00BF00BF00BF00BF00BF00BF00BF12
:1006F00000BF00BF00BF00BF00BF00BF00BF00BF02
:1007000000BF00BF00BF00BF00BF00BF00BF00BFF1
:1007100000BF00BF00BF00BF00BF00BF00BF00BFE1
:1007200000BF00BF00BF00BF00BF00BF00BF00BFD1
:1007300000BF00BF00200D49C1F8B40100BF00BFD9
:1007400000BF00BF00BF00BF00BF00BF00BF00BFB1
:1007500000BF00BF00BF00BF00BF00BF00BF00BFA1
:1007600000BF00BF70470000B401224200002242D7
:1007700070B50546002451E02C48005D00F0800073
:1007800010B9FFF745FF01E0FFF79AFF2748005D2A
:1007900000F0400010B9FFF73BFF01E0FFF790FFCA
:1007A0002248005D00F0200010B9FFF731FF01E0A2
:1007B000FFF786FF1D48005D00F0100010B9FFF73D
:1007C00027FF01E0FFF77CFF1848005D00F00800FC
:1007D00010B9FFF71DFF01E0FFF772FF1348005D3E
:1007E00000F0040010B9FFF713FF01E0FFF768FF06
:1007F0000E48005D00F0020010B9FFF709FF01E0AC
:10080000FFF75EFF0948005D00F0010010B9FFF737
:10081000FFFE01E0FFF754FF601CC4B205EB45008A
:10082000A042A9DC00F004F870BD0000E400002044
:1008300010B5002002490860422000F0A0FA10BD67
:10084000B401224230B5441E04EB4404064D2A553F
:10085000441E04EB4404641C2955441E04EB440468
:10086000A41C2B5530BD0000E400002000B5002082
:1008700015490861C8601420486100208861C8617A
:100880000846006840F001000860084640680F49CB
:1008900008400D494860084600680D4908400A496B
:1008A00008600846006820F4802008600846406818
:1008B00020F4FE0048600020886000214FF00060B6
:1008C00000F01CF800BD0000001002400000FFF81E
:1008D000FFFFF6FE0146072323EA01021202054B41
:1008E00018684FF6FF031840034B18431043014BA1
:1008F000186070470CED00E00000FA05024A0A405B
:100900000243024B1A60704780FFFF1F08ED00E0B2
:1009100000BFFEE77047000070B5002100230F22E2
:10092000C47804B3154C246804F4E064C4F5E064AE
:10093000210AC1F10403CA40447804FA03F184781F
:100940001440214309010E4C0678A155047804F0A7
:100950001F050124AC4005786D11AD0005F1E025BF
:10096000C5F8004109E0047804F01F050124AC40FB
:10097000044D0678761145F8264070BD0CED00E078
:1009800000E400E080E100E07047000029B1064A81
:1009900092690243044B9A6104E0034A92698243DC
:1009A000014B9A61704700000010024030B50021F1
:1009B0000022002400232D4D6D6805F00C0121B1AB
:1009C000042905D0082923D105E0294D056022E03E
:1009D000274D05601FE0254D6D6805F47012234D0D
:1009E0006D6805F48034022505EB92421CB9214D57
:1009F000554305600BE01D4D6D6805F400351DB1D4
:100A00001C4D5543056002E0194D5543056002E059
:100A1000174D056000BF00BF144D6D6805F0F00173
:100A20000909154D6B5C0568DD4045600F4D6D682B
:100A300005F4E061090A104D6B5C4568DD40856096
:100A40000A4D6D6805F46051C90A0B4D6B5C456831
:100A5000DD40C560054D6D6805F44041890B074DCB
:100A60006B5CC568B5FBF3F5056130BD0010024055
:100A700000127A0000093D00060000201600002048
:100A80007047000030B504460025FFF7EFFE1F4811
:100A9000006840F480301D49086000BF1B480068B2
:100AA000400C0028FAD04FF4806018494860A01E1E
:100AB000C4B20846406840EA84404860084640683E
:100AC00040F4803048601248006840F0320010491D
:100AD00008600E48006840F080700C49086000BF54
:100AE0000A480068400E0028FAD00848406840F0E4
:100AF00002000649486005E004484068C0F38705E5
:100B000005F00305022DF7D130BD000000100240B2
:100B1000002002407047000010B540F225511448F3
:100B200000F043F8F0B1124800F0FAF8C4B21148EE
:100B30001149097844540078482805D10E480078B6
:100B4000401C0D49087002E000200B4908700A485B
:100B50000078052806D1074800794F2802D10120E6
:100B6000064908702021024800F00AF810BD000074
:100B7000003801401C000020050000200400002077
:100B800001F40072B2F5007F00D100BFCA430280B9
:100B9000704721B1828942F40052828104E0828947
:100BA0004DF6FF731A408281704770B502460024EB
:100BB00000230025002040F66A16B14200D100BF94
:100BC000C1F3421501F01F03012606FA03F3012DBC
:100BD00002D19689334006E0022D02D1168A3340B5
:100BE00001E0968A33400C12012606FA04F41688B6
:100BF000344013B10CB1012000E0002070BDF0B50D
:100C00000346002400260025002040F66A17B9425A
:100C100000D100BF1846C1F3421401F01F0601279E
:100C200007FA06F5012C01D10C3004E0022C01D1A9
:100C3000103000E014301AB107682F43076002E05B
:100C40000768AF430760F0BD2DE9F04786B0054661
:100C50000E460024A24600BFA1460027B08900B17D
:100C600000BF2F462C8A4CF6FF700440F0880443E6
:100C70002C82AC894EF6F3100440B08831890843C9
:100C8000718908430443AC81AC8A4FF6FF400440AD
:100C9000B0890443AC8201A8FFF788FE1F48874251
:100CA00002D1DDF810A001E0DDF80CA0A88900F465
:100CB000004040B10AEBCA0000EB0A10316849005D
:100CC000B0FBF1F807E00AEBCA0000EB0A1031684C
:100CD0008900B0FBF1F86420B8FBF0F004012009B2
:100CE000642101FB1089A88900F4004040B1322042
:100CF00000EBC900B0FBF1F000F00700044308E08E
:100D0000322000EB09106421B0FBF1F000F00F007D
:100D100004432C8106B0BDE8F08700000038014094
:100D200001468888C0F30800704700BFFEE701460F
:100D300000BF704708B501211020FFF727FE4FF4D0
:100D4000C040ADF8000010208DF8030003208DF89E
:100D5000020069460148FFF7E6FA08BD00100140AD
:100D600007E041F64B4100BF0A1EA1F1010399B211
:100D7000FAD1021EA0F1010398B2F2D1704706E049
:100D8000082100BF0A1EA1F1010399B2FAD1021E87
:100D9000A0F1010398B2F3D17047000000BF054AEB
:100DA000128802F04002002AF9D0C2B2014B1B1D8A
:100DB0001A807047003801400920FFF763FE0220C7
:100DC000FFF788FD4FF4E13000F01EF80220FFF736
:100DD00037FB0120FFF734FBFFF7ACFF06A0FFF75E
:100DE0001BFA08E007480078012801D1FFF740FB13
:100DF0006420FFF7B5FFF5E7515354C7E0C8ED0D88
:100E00000A0000000400002010B586B0044601214D
:100E100044F20400FFF7BAFD4FF40070ADF814007F
:100E200003208DF8160018208DF8170005A91C481E
:100E3000FFF779FA4FF48060ADF8140004208DF8C4
:100E4000170005A91648FFF76EFA25208DF8000057
:100E500003208DF801008DF8020001208DF80300B9
:100E60006846FFF759FD01940020ADF80800ADF881
:100E70000A00ADF80C00ADF810000C20ADF80E0023
:100E800001A90848FFF7E0FE012240F2255105487C
:100E9000FFF7B5FE01210348FFF77BFE06B010BD4A
:100EA0000008014000380140C80E00080000002082
:100EB0001C0000006C010008E40E00081C0000206B
:100EC0005C03000088010008000000000000000032
:100ED00000000102030401020304060708090204DA
:040EE0000608000000
:04000005080001CF1F
:00000001FF
